S01700004763634170706C69636174696F6E312E737265635B
S11300000C942A000C943F000C943F000C943F0085
S11300100C943F000C943F000C943F000C943F0060
S11300200C943F000C943F000C943F000C943F0050
S11300300C943F000C943F000C943F000C943F0040
S11300400C943F000C943F000C943F000C943F0030
S11300500C943F0011241FBECFE5D8E0DEBFCDBF16
S113006010E0A0E6B0E0E0EEF1E002C005900D92F1
S1130070AA37B107D9F70E9441000C94EE000C9402
S11300800000CF93DF93CDB7DEB76E970FB6F89429
S1130090DEBF0FBECDBF60E875E280E090E00E9455
S11300A06D00CE0101960E94A900CE0101960E9426
S11300B0A900FC018485803319F48585823319F005
S11300C08585833329F480E690E00E949600E9CF89
S11300D08CE690E00E949600E4CF22E02BB928E160
S11300E02AB926E820BDDC01CB01880F991FAA1F7D
S11300F0BB1F880F991FAA1FBB1F9C01AD01220FB4
S1130100331F441F551F60E472E48FE090E00E94A7
S1130110CC002150310930BD29B908955D9BFECF33
S11301208CB908955F9BFECF8CB108950F931F93F4
S1130130CF938C01C0E003C00E948E00CF5FF80112
S1130140EC0FF11D80818111F7CFCF911F910F9199
S11301500895EF92FF920F931F93CF938C010E9407
S11301609200F8018083C0E008C0CF5F7801EC0EF4
S1130170F11C0E949200F7018083F801EC0FF11D3D
S11301808081833291F78DE08083C801CF911F91E4
S11301900F91FF90EF900895A1E21A2EAA1BBB1BAA
S11301A0FD010DC0AA1FBB1FEE1FFF1FA217B3073F
S11301B0E407F50720F0A21BB30BE40BF50B661F55
S11301C0771F881F991F1A9469F760957095809519
S11301D090959B01AC01BD01CF010895F894FFCF28
S11301E0456D657267656E6379210D004E6F20451C
S10D01F06D657267656E63790D009A
S9030000FC
